{
  "_format": "hh-sol-artifact-1",
  "contractName": "Factory",
  "sourceName": "contracts/Factory.sol",
  "abi": [
    {
      "inputs": [
        {
          "internalType": "uint256",
          "name": "_fee",
          "type": "uint256"
        }
      ],
      "stateMutability": "nonpayable",
      "type": "constructor"
    },
    {
      "anonymous": false,
      "inputs": [
        {
          "indexed": true,
          "internalType": "address",
          "name": "buyer",
          "type": "address"
        },
        {
          "indexed": true,
          "internalType": "address",
          "name": "token",
          "type": "address"
        },
        {
          "indexed": false,
          "internalType": "uint256",
          "name": "amount",
          "type": "uint256"
        }
      ],
      "name": "Buy",
      "type": "event"
    },
    {
      "anonymous": false,
      "inputs": [
        {
          "indexed": true,
          "internalType": "address",
          "name": "creator",
          "type": "address"
        },
        {
          "indexed": false,
          "internalType": "address",
          "name": "contractAddress",
          "type": "address"
        }
      ],
      "name": "ContractCreated",
      "type": "event"
    },
    {
      "anonymous": false,
      "inputs": [
        {
          "indexed": false,
          "internalType": "uint256",
          "name": "oldFee",
          "type": "uint256"
        },
        {
          "indexed": false,
          "internalType": "uint256",
          "name": "newFee",
          "type": "uint256"
        }
      ],
      "name": "FeeUpdated",
      "type": "event"
    },
    {
      "anonymous": false,
      "inputs": [
        {
          "indexed": true,
          "internalType": "address",
          "name": "token",
          "type": "address"
        },
        {
          "indexed": false,
          "internalType": "uint256",
          "name": "amount",
          "type": "uint256"
        }
      ],
      "name": "FundsDeposited",
      "type": "event"
    },
    {
      "anonymous": false,
      "inputs": [
        {
          "indexed": true,
          "internalType": "address",
          "name": "token",
          "type": "address"
        }
      ],
      "name": "SaleClosed",
      "type": "event"
    },
    {
      "anonymous": false,
      "inputs": [
        {
          "indexed": true,
          "internalType": "address",
          "name": "token",
          "type": "address"
        },
        {
          "indexed": false,
          "internalType": "enum IFactory.SaleStage",
          "name": "stage",
          "type": "uint8"
        }
      ],
      "name": "StageUpdated",
      "type": "event"
    },
    {
      "anonymous": false,
      "inputs": [
        {
          "indexed": true,
          "internalType": "address",
          "name": "token",
          "type": "address"
        },
        {
          "indexed": false,
          "internalType": "uint256",
          "name": "amount",
          "type": "uint256"
        }
      ],
      "name": "TokensDeposited",
      "type": "event"
    },
    {
      "inputs": [
        {
          "internalType": "address",
          "name": "_token",
          "type": "address"
        },
        {
          "internalType": "uint256",
          "name": "_amount",
          "type": "uint256"
        }
      ],
      "name": "buy",
      "outputs": [],
      "stateMutability": "payable",
      "type": "function"
    },
    {
      "inputs": [
        {
          "internalType": "uint256",
          "name": "_amount",
          "type": "uint256"
        }
      ],
      "name": "calculateFees",
      "outputs": [
        {
          "internalType": "uint256",
          "name": "",
          "type": "uint256"
        }
      ],
      "stateMutability": "view",
      "type": "function"
    },
    {
      "inputs": [
        {
          "internalType": "address",
          "name": "_token",
          "type": "address"
        }
      ],
      "name": "checkFundingStatus",
      "outputs": [
        {
          "internalType": "bool",
          "name": "",
          "type": "bool"
        }
      ],
      "stateMutability": "view",
      "type": "function"
    },
    {
      "inputs": [
        {
          "internalType": "address",
          "name": "_token",
          "type": "address"
        }
      ],
      "name": "claimRefund",
      "outputs": [],
      "stateMutability": "nonpayable",
      "type": "function"
    },
    {
      "inputs": [
        {
          "internalType": "address",
          "name": "",
          "type": "address"
        },
        {
          "internalType": "address",
          "name": "",
          "type": "address"
        }
      ],
      "name": "contributions",
      "outputs": [
        {
          "internalType": "uint256",
          "name": "",
          "type": "uint256"
        }
      ],
      "stateMutability": "view",
      "type": "function"
    },
    {
      "inputs": [
        {
          "internalType": "string",
          "name": "_name",
          "type": "string"
        },
        {
          "internalType": "string",
          "name": "_symbol",
          "type": "string"
        },
        {
          "internalType": "uint256",
          "name": "_startTime",
          "type": "uint256"
        },
        {
          "internalType": "uint256",
          "name": "_endTime",
          "type": "uint256"
        },
        {
          "internalType": "string",
          "name": "_imageHash",
          "type": "string"
        },
        {
          "internalType": "uint8",
          "name": "_curveType",
          "type": "uint8"
        },
        {
          "internalType": "uint256",
          "name": "_curveSlope",
          "type": "uint256"
        }
      ],
      "name": "create",
      "outputs": [],
      "stateMutability": "payable",
      "type": "function"
    },
    {
      "inputs": [
        {
          "internalType": "address",
          "name": "_token",
          "type": "address"
        }
      ],
      "name": "deposit",
      "outputs": [],
      "stateMutability": "nonpayable",
      "type": "function"
    },
    {
      "inputs": [],
      "name": "fee",
      "outputs": [
        {
          "internalType": "uint256",
          "name": "",
          "type": "uint256"
        }
      ],
      "stateMutability": "view",
      "type": "function"
    },
    {
      "inputs": [
        {
          "internalType": "uint256",
          "name": "_sold",
          "type": "uint256"
        }
      ],
      "name": "getCost",
      "outputs": [
        {
          "internalType": "uint256",
          "name": "cost",
          "type": "uint256"
        }
      ],
      "stateMutability": "pure",
      "type": "function"
    },
    {
      "inputs": [
        {
          "internalType": "address",
          "name": "_token",
          "type": "address"
        },
        {
          "internalType": "uint256",
          "name": "_amount",
          "type": "uint256"
        }
      ],
      "name": "getPredictedPrice",
      "outputs": [
        {
          "internalType": "uint256",
          "name": "",
          "type": "uint256"
        }
      ],
      "stateMutability": "view",
      "type": "function"
    },
    {
      "inputs": [
        {
          "internalType": "uint256",
          "name": "_index",
          "type": "uint256"
        }
      ],
      "name": "getTokenForSale",
      "outputs": [
        {
          "components": [
            {
              "internalType": "address",
              "name": "token",
              "type": "address"
            },
            {
              "internalType": "string",
              "name": "name",
              "type": "string"
            },
            {
              "internalType": "address",
              "name": "creator",
              "type": "address"
            },
            {
              "internalType": "uint256",
              "name": "sold",
              "type": "uint256"
            },
            {
              "internalType": "uint256",
              "name": "raised",
              "type": "uint256"
            },
            {
              "internalType": "uint256",
              "name": "startTime",
              "type": "uint256"
            },
            {
              "internalType": "uint256",
              "name": "endTime",
              "type": "uint256"
            },
            {
              "internalType": "enum IFactory.SaleStage",
              "name": "stage",
              "type": "uint8"
            },
            {
              "internalType": "string",
              "name": "signedUrl",
              "type": "string"
            },
            {
              "internalType": "uint8",
              "name": "curveType",
              "type": "uint8"
            },
            {
              "internalType": "uint256",
              "name": "curveSlope",
              "type": "uint256"
            }
          ],
          "internalType": "struct IFactory.TokenSale",
          "name": "",
          "type": "tuple"
        }
      ],
      "stateMutability": "view",
      "type": "function"
    },
    {
      "inputs": [],
      "name": "owner",
      "outputs": [
        {
          "internalType": "address",
          "name": "",
          "type": "address"
        }
      ],
      "stateMutability": "view",
      "type": "function"
    },
    {
      "inputs": [],
      "name": "paused",
      "outputs": [
        {
          "internalType": "bool",
          "name": "",
          "type": "bool"
        }
      ],
      "stateMutability": "view",
      "type": "function"
    },
    {
      "inputs": [],
      "name": "platformFee",
      "outputs": [
        {
          "internalType": "uint256",
          "name": "",
          "type": "uint256"
        }
      ],
      "stateMutability": "view",
      "type": "function"
    },
    {
      "inputs": [
        {
          "internalType": "uint256",
          "name": "_newFee",
          "type": "uint256"
        }
      ],
      "name": "setFee",
      "outputs": [],
      "stateMutability": "nonpayable",
      "type": "function"
    },
    {
      "inputs": [
        {
          "internalType": "bool",
          "name": "_paused",
          "type": "bool"
        }
      ],
      "name": "setPaused",
      "outputs": [],
      "stateMutability": "nonpayable",
      "type": "function"
    },
    {
      "inputs": [
        {
          "internalType": "address",
          "name": "_token",
          "type": "address"
        },
        {
          "internalType": "enum IFactory.SaleStage",
          "name": "_stage",
          "type": "uint8"
        }
      ],
      "name": "setStage",
      "outputs": [],
      "stateMutability": "nonpayable",
      "type": "function"
    },
    {
      "inputs": [
        {
          "internalType": "address",
          "name": "_token",
          "type": "address"
        },
        {
          "internalType": "uint256",
          "name": "_sold",
          "type": "uint256"
        },
        {
          "internalType": "uint256",
          "name": "_raised",
          "type": "uint256"
        }
      ],
      "name": "setTestSaleData",
      "outputs": [],
      "stateMutability": "nonpayable",
      "type": "function"
    },
    {
      "inputs": [
        {
          "internalType": "address",
          "name": "_token",
          "type": "address"
        },
        {
          "internalType": "address",
          "name": "_user",
          "type": "address"
        },
        {
          "internalType": "uint256",
          "name": "_amount",
          "type": "uint256"
        }
      ],
      "name": "setTestUserPurchases",
      "outputs": [],
      "stateMutability": "nonpayable",
      "type": "function"
    },
    {
      "inputs": [
        {
          "internalType": "address",
          "name": "",
          "type": "address"
        }
      ],
      "name": "tokenForSale",
      "outputs": [
        {
          "internalType": "address",
          "name": "token",
          "type": "address"
        },
        {
          "internalType": "string",
          "name": "name",
          "type": "string"
        },
        {
          "internalType": "address",
          "name": "creator",
          "type": "address"
        },
        {
          "internalType": "uint256",
          "name": "sold",
          "type": "uint256"
        },
        {
          "internalType": "uint256",
          "name": "raised",
          "type": "uint256"
        },
        {
          "internalType": "uint256",
          "name": "startTime",
          "type": "uint256"
        },
        {
          "internalType": "uint256",
          "name": "endTime",
          "type": "uint256"
        },
        {
          "internalType": "enum IFactory.SaleStage",
          "name": "stage",
          "type": "uint8"
        },
        {
          "internalType": "string",
          "name": "signedUrl",
          "type": "string"
        },
        {
          "internalType": "uint8",
          "name": "curveType",
          "type": "uint8"
        },
        {
          "internalType": "uint256",
          "name": "curveSlope",
          "type": "uint256"
        }
      ],
      "stateMutability": "view",
      "type": "function"
    },
    {
      "inputs": [
        {
          "internalType": "uint256",
          "name": "",
          "type": "uint256"
        }
      ],
      "name": "tokens",
      "outputs": [
        {
          "internalType": "address",
          "name": "",
          "type": "address"
        }
      ],
      "stateMutability": "view",
      "type": "function"
    },
    {
      "inputs": [],
      "name": "totalTokens",
      "outputs": [
        {
          "internalType": "uint256",
          "name": "",
          "type": "uint256"
        }
      ],
      "stateMutability": "view",
      "type": "function"
    },
    {
      "inputs": [
        {
          "internalType": "uint256",
          "name": "_newFee",
          "type": "uint256"
        }
      ],
      "name": "updatePlatformFee",
      "outputs": [],
      "stateMutability": "nonpayable",
      "type": "function"
    },
    {
      "inputs": [
        {
          "internalType": "address",
          "name": "",
          "type": "address"
        },
        {
          "internalType": "address",
          "name": "",
          "type": "address"
        }
      ],
      "name": "userPurchases",
      "outputs": [
        {
          "internalType": "uint256",
          "name": "",
          "type": "uint256"
        }
      ],
      "stateMutability": "view",
      "type": "function"
    },
    {
      "inputs": [
        {
          "internalType": "uint256",
          "name": "_amount",
          "type": "uint256"
        }
      ],
      "name": "withdraw",
      "outputs": [],
      "stateMutability": "nonpayable",
      "type": "function"
    }
  ],
  "bytecode": "0x60a0604052603260015534801561001557600080fd5b50604051613dfc380380613dfc83398101604081905261003491610040565b60005533608052610059565b60006020828403121561005257600080fd5b5051919050565b608051613d656100976000396000818161039a01528181610996015281816109f101528181610a7901528181610e0701526112330152613d656000f3fe6080604052600436106101665760003560e01c80636aa48a4b116100d1578063af0a149e1161008a578063d348692911610064578063d34869291461046f578063ddca3f431461049c578063f340fa01146104b2578063f7b0c9e4146104d257600080fd5b8063af0a149e1461041c578063bffa55d51461043c578063cce7ec131461045c57600080fd5b80636aa48a4b146103525780637e1c0c09146103725780638da5cb5b14610388578063a103dec9146103bc578063a27f7473146103dc578063aa0b5988146103fc57600080fd5b80633048e15b116101235780633048e15b146102595780634f64b2be1461029057806352238fdd146102c85780635a4dd47d146102e85780635c975abb1461030857806369fe0e2d1461033257600080fd5b80630917785e1461016b578063128fd8171461018057806316c38b3c146101cb57806326232a2e146101eb57806329369ccf146102015780632e1a7d4d14610239575b600080fd5b61017e6101793660046128b1565b6104f2565b005b34801561018c57600080fd5b506101b861019b36600461299a565b600760209081526000928352604080842090915290825290205481565b6040519081526020015b60405180910390f35b3480156101d757600080fd5b5061017e6101e63660046129de565b61098b565b3480156101f757600080fd5b506101b860015481565b34801561020d57600080fd5b506101b861021c36600461299a565b600660209081526000928352604080842090915290825290205481565b34801561024557600080fd5b5061017e6102543660046129fb565b6109e6565b34801561026557600080fd5b50610279610274366004612a14565b610b32565b6040516101c29b9a99989796959493929190612aad565b34801561029c57600080fd5b506102b06102ab3660046129fb565b610cb9565b6040516001600160a01b0390911681526020016101c2565b3480156102d457600080fd5b506101b86102e33660046129fb565b610ce3565b3480156102f457600080fd5b506101b86103033660046129fb565b610d6b565b34801561031457600080fd5b506002546103229060ff1681565b60405190151581526020016101c2565b34801561033e57600080fd5b5061017e61034d3660046129fb565b610dfc565b34801561035e57600080fd5b5061032261036d366004612a14565b610eca565b34801561037e57600080fd5b506101b860035481565b34801561039457600080fd5b506102b07f000000000000000000000000000000000000000000000000000000000000000081565b3480156103c857600080fd5b5061017e6103d7366004612b38565b610f64565b3480156103e857600080fd5b5061017e6103f7366004612b73565b6111cf565b34801561040857600080fd5b5061017e6104173660046129fb565b611228565b34801561042857600080fd5b5061017e610437366004612bb0565b6112b6565b34801561044857600080fd5b5061017e610457366004612a14565b61130a565b61017e61046a366004612be3565b611572565b34801561047b57600080fd5b5061048f61048a3660046129fb565b611ac3565b6040516101c29190612c0d565b3480156104a857600080fd5b506101b860005481565b3480156104be57600080fd5b5061017e6104cd366004612a14565b611cd3565b3480156104de57600080fd5b506101b86104ed366004612be3565b61238e565b60025460ff161561053c5760405162461bcd60e51b815260206004820152600f60248201526e10dbdb9d1c9858dd081c185d5cd959608a1b60448201526064015b60405180910390fd5b6000875111801561054f57506020875111155b6105915760405162461bcd60e51b8152602060048201526013602482015272092dcecc2d8d2c840dcc2daca40d8cadccee8d606b1b6044820152606401610533565b600086511180156105a457506008865111155b6105e85760405162461bcd60e51b8152602060048201526015602482015274092dcecc2d8d2c840e6f2dac4ded840d8cadccee8d605b1b6044820152606401610533565b60005434101561062d5760405162461bcd60e51b815260206004820152601060248201526f496e73756666696369656e742066656560801b6044820152606401610533565b42851161067c5760405162461bcd60e51b815260206004820152601c60248201527f53746172742074696d65206d75737420626520696e20667574757265000000006044820152606401610533565b8484116106d55760405162461bcd60e51b815260206004820152602160248201527f456e642074696d65206d7573742062652061667465722073746172742074696d6044820152606560f81b6064820152608401610533565b600081116107255760405162461bcd60e51b815260206004820152601c60248201527f437572766520736c6f7065206d75737420626520706f736974697665000000006044820152606401610533565b600033888869d3c21bcecceda100000060405161074190612783565b61074e9493929190612cea565b604051809103906000f08015801561076a573d6000803e3d6000fd5b506004805460018101825560009182527f8a35acfbc15ff81a39ae7d344fd709f28e8600b4aa8c65c6b64bfe7fe36bd19b0180546001600160a01b0319166001600160a01b03841617905560038054929350906107c683612d48565b91905055506000604051806101600160405280836001600160a01b031681526020018a8152602001336001600160a01b0316815260200160008152602001600081526020018881526020018781526020016000600181111561082a5761082a612a75565b8152602080820188905260ff871660408084019190915260609092018690526001600160a01b0385811660009081526005835292909220835181546001600160a01b03191693169290921782558201519192508291600182019061088e9082612dea565b5060408201516002820180546001600160a01b0319166001600160a01b03909216919091179055606082015160038201556080820151600482015560a0820151600582015560c0820151600682015560e082015160078201805460ff1916600183818111156108ff576108ff612a75565b021790555061010082015160088201906109199082612dea565b5061012082015160098201805460ff191660ff90921691909117905561014090910151600a909101556040516001600160a01b038316815233907f2d49c67975aadd2d389580b368cfff5b49965b0bd5da33c144922ce01e7a4d7b9060200160405180910390a2505050505050505050565b336001600160a01b037f000000000000000000000000000000000000000000000000000000000000000016146109d35760405162461bcd60e51b815260040161053390612ea9565b6002805460ff1916911515919091179055565b336001600160a01b037f00000000000000000000000000000000000000000000000000000000000000001614610a2e5760405162461bcd60e51b815260040161053390612ea9565b47811115610a755760405162461bcd60e51b8152602060048201526014602482015273496e73756666696369656e742062616c616e636560601b6044820152606401610533565b60007f00000000000000000000000000000000000000000000000000000000000000006001600160a01b03168260405160006040518083038185875af1925050503d8060008114610ae2576040519150601f19603f3d011682016040523d82523d6000602084013e610ae7565b606091505b5050905080610b2e5760405162461bcd60e51b8152602060048201526013602482015272115512081dda5d1a191c985dc819985a5b1959606a1b6044820152606401610533565b5050565b600560205260009081526040902080546001820180546001600160a01b039092169291610b5e90612d61565b80601f0160208091040260200160405190810160405280929190818152602001828054610b8a90612d61565b8015610bd75780601f10610bac57610100808354040283529160200191610bd7565b820191906000526020600020905b815481529060010190602001808311610bba57829003601f168201915b5050505060028301546003840154600485015460058601546006870154600788015460088901805498996001600160a01b039097169895975093959294919360ff9091169291610c2690612d61565b80601f0160208091040260200160405190810160405280929190818152602001828054610c5290612d61565b8015610c9f5780601f10610c7457610100808354040283529160200191610c9f565b820191906000526020600020905b815481529060010190602001808311610c8257829003601f168201915b505050506009830154600a90930154919260ff169190508b565b60048181548110610cc957600080fd5b6000918252602090912001546001600160a01b0316905081565b60015460405163ef11c80960e01b815260048101839052602481019190915260009073__$837d8a82f6bd9812dda03443f7368d1d26$__9063ef11c80990604401602060405180830381865af4158015610d41573d6000803e3d6000fd5b505050506040513d601f19601f82011682018060405250810190610d659190612ecc565b92915050565b6040516325db0f4160e21b815260048101829052670de0b6b3a76400006024820181905260009173__$837d8a82f6bd9812dda03443f7368d1d26$__9063976c3d0490604401602060405180830381865af4158015610dce573d6000803e3d6000fd5b505050506040513d601f19601f82011682018060405250810190610df29190612ecc565b610d659190612ee5565b336001600160a01b037f00000000000000000000000000000000000000000000000000000000000000001614610e445760405162461bcd60e51b815260040161053390612ea9565b60008111610e895760405162461bcd60e51b81526020600482015260126024820152714665652063616e6e6f74206265207a65726f60701b6044820152606401610533565b60005460408051918252602082018390527f528d9479e9f9889a87a3c30c7f7ba537e5e59c4c85a37733b16e57c62df61302910160405180910390a1600055565b6001600160a01b0381166000908152600560205260408082206004808201549251630409453360e21b8152908101929092529073__$837d8a82f6bd9812dda03443f7368d1d26$__9063102514cc90602401602060405180830381865af4158015610f39573d6000803e3d6000fd5b505050506040513d601f19601f82011682018060405250810190610f5d9190612f07565b9392505050565b6001600160a01b03808316600090815260056020908152604080832081516101608101909252805490941681526001840180548795929384019190610fa890612d61565b80601f0160208091040260200160405190810160405280929190818152602001828054610fd490612d61565b80156110215780601f10610ff657610100808354040283529160200191611021565b820191906000526020600020905b81548152906001019060200180831161100457829003601f168201915b505050918352505060028201546001600160a01b03166020820152600382015460408201526004820154606082015260058201546080820152600682015460a0820152600782015460c09091019060ff16600181111561108357611083612a75565b600181111561109457611094612a75565b81526020016008820180546110a890612d61565b80601f01602080910402602001604051908101604052809291908181526020018280546110d490612d61565b80156111215780601f106110f657610100808354040283529160200191611121565b820191906000526020600020905b81548152906001019060200180831161110457829003601f168201915b5050509183525050600982015460ff166020820152600a909101546040918201528101519091506001600160a01b0316331461118d5760405162461bcd60e51b815260206004820152600b60248201526a2737ba1031b932b0ba37b960a91b6044820152606401610533565b6001600160a01b0384166000908152600560205260409020600701805484919060ff1916600183818111156111c4576111c4612a75565b021790555050505050565b46617a6914806111e0575046610539145b6111fc5760405162461bcd60e51b815260040161053390612f24565b6001600160a01b0392831660009081526007602090815260408083209490951682529290925291902055565b336001600160a01b037f000000000000000000000000000000000000000000000000000000000000000016146112705760405162461bcd60e51b815260040161053390612ea9565b6103e88111156112b15760405162461bcd60e51b815260206004820152600c60248201526b08ccaca40e8dede40d0d2ced60a31b6044820152606401610533565b600155565b46617a6914806112c7575046610539145b6112e35760405162461bcd60e51b815260040161053390612f24565b6001600160a01b039092166000908152600560205260409020600381019190915560040155565b600254610100900460ff16156113325760405162461bcd60e51b815260040161053390612f70565b6002805461ff0019166101001790556001600160a01b03811660009081526005602052604090206006810154421161139d5760405162461bcd60e51b815260206004820152600e60248201526d14d85b19481b9bdd08195b99195960921b6044820152606401610533565b600481810154604051630409453360e21b81529182015273__$837d8a82f6bd9812dda03443f7368d1d26$__9063102514cc90602401602060405180830381865af41580156113f0573d6000803e3d6000fd5b505050506040513d601f19601f820116820180604052508101906114149190612f07565b156114565760405162461bcd60e51b8152602060048201526012602482015271119d5b991a5b99c81cdd58d8d95cdcd99d5b60721b6044820152606401610533565b6001600160a01b0382166000908152600660209081526040808320338452909152902054806114b95760405162461bcd60e51b815260206004820152600f60248201526e27379031b7b73a3934b13aba34b7b760891b6044820152606401610533565b6001600160a01b03831660009081526006602090815260408083203380855292528083208390555183908381818185875af1925050503d806000811461151b576040519150601f19603f3d011682016040523d82523d6000602084013e611520565b606091505b50509050806115615760405162461bcd60e51b815260206004820152600d60248201526c1499599d5b990819985a5b1959609a1b6044820152606401610533565b50506002805461ff00191690555050565b600254610100900460ff161561159a5760405162461bcd60e51b815260040161053390612f70565b6002805461ff001981166101001790915560ff16156115ed5760405162461bcd60e51b815260206004820152600f60248201526e10dbdb9d1c9858dd081c185d5cd959608a1b6044820152606401610533565b6001600160a01b038216600090815260056020526040812090600782015460ff16600181111561161f5761161f612a75565b1461165e5760405162461bcd60e51b815260206004820152600f60248201526e53616c65206e6f742061637469766560881b6044820152606401610533565b80600501544210156116a55760405162461bcd60e51b815260206004820152601060248201526f14d85b19481b9bdd081cdd185c9d195960821b6044820152606401610533565b80600601544211156116e65760405162461bcd60e51b815260206004820152600a60248201526914d85b1948195b99195960b21b6044820152606401610533565b6001600160a01b03831660009081526007602090815260408083203384529091529081902054905163646fad3160e11b815273__$837d8a82f6bd9812dda03443f7368d1d26$__9163c8df5a629161174b918691600401918252602082015260400190565b602060405180830381865af4158015611768573d6000803e3d6000fd5b505050506040513d601f19601f8201168201806040525081019061178c9190612f07565b6117d85760405162461bcd60e51b815260206004820152601760248201527f496e76616c696420707572636861736520706172616d730000000000000000006044820152606401610533565b60038101546009820154600a8301546000926117fb929091869160ff1690612599565b9050803410156118445760405162461bcd60e51b8152602060048201526014602482015273125b9cdd59999a58da595b9d081c185e5b595b9d60621b6044820152606401610533565b803411156118dd576000336118598334612f98565b604051600081818185875af1925050503d8060008114611895576040519150601f19603f3d011682016040523d82523d6000602084013e61189a565b606091505b50509050806118db5760405162461bcd60e51b815260206004820152600d60248201526c1499599d5b990819985a5b1959609a1b6044820152606401610533565b505b6001600160a01b038416600090815260076020908152604080832033845290915281208054859290611910908490612fab565b925050819055508282600301600082825461192b9190612fab565b92505081905550808260040160008282546119469190612fab565b90915550506001600160a01b03841660009081526006602090815260408083203384529091528120805483929061197e908490612fab565b909155506119999050670de0b6b3a76400006207a120612fbe565b82600301541015806119b757506729a2241af62c0000826004015410155b15611a005760078201805460ff191660011790556040516001600160a01b038516907f5caab17bad67c53e59f2f0cbddf48b5cbe8616c7facf4543348ce7ae4fbeaa9b90600090a25b60405163a9059cbb60e01b8152336004820152602481018490526001600160a01b0385169063a9059cbb906044016020604051808303816000875af1158015611a4d573d6000803e3d6000fd5b505050506040513d601f19601f82011682018060405250810190611a719190612f07565b506040518381526001600160a01b0385169033907fd0c183be209f70036b50de16805d88249019e1288d7b77ef877710999c0d08e69060200160405180910390a350506002805461ff00191690555050565b611acb612790565b6005600060048481548110611ae257611ae2612fd5565b60009182526020808320909101546001600160a01b039081168452838201949094526040928301909120825161016081019093528054909316825260018301805492939291840191611b3390612d61565b80601f0160208091040260200160405190810160405280929190818152602001828054611b5f90612d61565b8015611bac5780601f10611b8157610100808354040283529160200191611bac565b820191906000526020600020905b815481529060010190602001808311611b8f57829003601f168201915b505050918352505060028201546001600160a01b03166020820152600382015460408201526004820154606082015260058201546080820152600682015460a0820152600782015460c09091019060ff166001811115611c0e57611c0e612a75565b6001811115611c1f57611c1f612a75565b8152602001600882018054611c3390612d61565b80601f0160208091040260200160405190810160405280929190818152602001828054611c5f90612d61565b8015611cac5780601f10611c8157610100808354040283529160200191611cac565b820191906000526020600020905b815481529060010190602001808311611c8f57829003601f168201915b5050509183525050600982015460ff166020820152600a9091015460409091015292915050565b6001600160a01b03808216600090815260056020908152604080832081516101608101909252805490941681526001840180548695929384019190611d1790612d61565b80601f0160208091040260200160405190810160405280929190818152602001828054611d4390612d61565b8015611d905780601f10611d6557610100808354040283529160200191611d90565b820191906000526020600020905b815481529060010190602001808311611d7357829003601f168201915b505050918352505060028201546001600160a01b03166020820152600382015460408201526004820154606082015260058201546080820152600682015460a0820152600782015460c09091019060ff166001811115611df257611df2612a75565b6001811115611e0357611e03612a75565b8152602001600882018054611e1790612d61565b80601f0160208091040260200160405190810160405280929190818152602001828054611e4390612d61565b8015611e905780601f10611e6557610100808354040283529160200191611e90565b820191906000526020600020905b815481529060010190602001808311611e7357829003601f168201915b5050509183525050600982015460ff166020820152600a909101546040918201528101519091506001600160a01b03163314611efc5760405162461bcd60e51b815260206004820152600b60248201526a2737ba1031b932b0ba37b960a91b6044820152606401610533565b600254610100900460ff1615611f245760405162461bcd60e51b815260040161053390612f70565b6002805461ff0019166101001790556001600160a01b0380841660009081526005602090815260408083208151610160810190925280549094168152600184018054939491939192840191611f7890612d61565b80601f0160208091040260200160405190810160405280929190818152602001828054611fa490612d61565b8015611ff15780601f10611fc657610100808354040283529160200191611ff1565b820191906000526020600020905b815481529060010190602001808311611fd457829003601f168201915b505050918352505060028201546001600160a01b03166020820152600382015460408201526004820154606082015260058201546080820152600682015460a0820152600782015460c09091019060ff16600181111561205357612053612a75565b600181111561206457612064612a75565b815260200160088201805461207890612d61565b80601f01602080910402602001604051908101604052809291908181526020018280546120a490612d61565b80156120f15780601f106120c6576101008083540402835291602001916120f1565b820191906000526020600020905b8154815290600101906020018083116120d457829003601f168201915b5050509183525050600982015460ff166020820152600a90910154604090910152905060018160e00151600181111561212c5761212c612a75565b1461216a5760405162461bcd60e51b815260206004820152600e60248201526d14d85b19481b9bdd08195b99195960921b6044820152606401610533565b6040516370a0823160e01b815230600482015284906000906001600160a01b038316906370a0823190602401602060405180830381865afa1580156121b3573d6000803e3d6000fd5b505050506040513d601f19601f820116820180604052508101906121d79190612ecc565b604084810151905163a9059cbb60e01b81526001600160a01b0391821660048201526024810183905291925083169063a9059cbb906044016020604051808303816000875af115801561222e573d6000803e3d6000fd5b505050506040513d601f19601f820116820180604052508101906122529190612f07565b50608083015160408085015190516000916001600160a01b03169083908381818185875af1925050503d80600081146122a7576040519150601f19603f3d011682016040523d82523d6000602084013e6122ac565b606091505b50509050806122f35760405162461bcd60e51b8152602060048201526013602482015272115512081d1c985b9cd9995c8819985a5b1959606a1b6044820152606401610533565b876001600160a01b03167f543ba50a5eec5e6178218e364b1d0f396157b3c8fa278522c2cb7fd99407d4748360405161232e91815260200190565b60405180910390a2876001600160a01b03167f59062170a285eb80e8c6b8ced60428442a51910635005233fc4ce084a475845e8460405161237191815260200190565b60405180910390a250506002805461ff0019169055505050505050565b6001600160a01b0380831660009081526005602090815260408083208151610160810190925280549094168152600184018054939485949293909290840191906123d790612d61565b80601f016020809104026020016040519081016040528092919081815260200182805461240390612d61565b80156124505780601f1061242557610100808354040283529160200191612450565b820191906000526020600020905b81548152906001019060200180831161243357829003601f168201915b505050918352505060028201546001600160a01b03166020820152600382015460408201526004820154606082015260058201546080820152600682015460a0820152600782015460c09091019060ff1660018111156124b2576124b2612a75565b60018111156124c3576124c3612a75565b81526020016008820180546124d790612d61565b80601f016020809104026020016040519081016040528092919081815260200182805461250390612d61565b80156125505780601f1061252557610100808354040283529160200191612550565b820191906000526020600020905b81548152906001019060200180831161253357829003601f168201915b5050509183525050600982015460ff166020820152600a90910154604090910152606081015161012082015161014083015192935061259192869190612599565b949350505050565b6000808360ff1660028111156125b1576125b1612a75565b905060008160028111156125c7576125c7612a75565b036125fc57670de0b6b3a7640000856125e08589612fbe565b6125ea9190612fbe565b6125f49190612ee5565b915050612591565b600181600281111561261057612610612a75565b036126905760006126218688612fab565b90506000670de0b6b3a7640000856126398480612fbe565b6126439190612fbe565b61264d9190612ee5565b90506000670de0b6b3a7640000866126658b80612fbe565b61266f9190612fbe565b6126799190612ee5565b90506126858183612f98565b945050505050612591565b60028160028111156126a4576126a4612a75565b03612711576000805b86811015612707576126bf8189612fab565b6126ca9060646130d2565b6126d4828a612fab565b6126df90606e6130d2565b6126e99190612ee5565b6126f39086612fbe565b6126fd9083612fab565b91506001016126ad565b5091506125919050565b61271b8686612725565b9695505050505050565b6000655af3107a40008069021e19e0c9bab240000083826127468389612ee5565b6127509085612fbe565b61275a9190612fab565b905061276e670de0b6b3a764000087612ee5565b6127789082612fbe565b979650505050505050565b610c51806130df83390190565b60405180610160016040528060006001600160a01b031681526020016060815260200160006001600160a01b0316815260200160008152602001600081526020016000815260200160008152602001600060018111156127f2576127f2612a75565b815260606020820181905260006040830181905291015290565b634e487b7160e01b600052604160045260246000fd5b600082601f83011261283357600080fd5b813567ffffffffffffffff81111561284d5761284d61280c565b604051601f8201601f19908116603f0116810167ffffffffffffffff8111828210171561287c5761287c61280c565b60405281815283820160200185101561289457600080fd5b816020850160208301376000918101602001919091529392505050565b600080600080600080600060e0888a0312156128cc57600080fd5b873567ffffffffffffffff8111156128e357600080fd5b6128ef8a828b01612822565b975050602088013567ffffffffffffffff81111561290c57600080fd5b6129188a828b01612822565b9650506040880135945060608801359350608088013567ffffffffffffffff81111561294357600080fd5b61294f8a828b01612822565b93505060a088013560ff8116811461296657600080fd5b96999598509396929591949193505060c09091013590565b80356001600160a01b038116811461299557600080fd5b919050565b600080604083850312156129ad57600080fd5b6129b68361297e565b91506129c46020840161297e565b90509250929050565b80151581146129db57600080fd5b50565b6000602082840312156129f057600080fd5b8135610f5d816129cd565b600060208284031215612a0d57600080fd5b5035919050565b600060208284031215612a2657600080fd5b610f5d8261297e565b6000815180845260005b81811015612a5557602081850181015186830182015201612a39565b506000602082860101526020601f19601f83011685010191505092915050565b634e487b7160e01b600052602160045260246000fd5b60028110612aa957634e487b7160e01b600052602160045260246000fd5b9052565b6001600160a01b038c16815261016060208201819052600090612ad29083018d612a2f565b60018060a01b038c1660408401528a60608401528960808401528860a08401528760c0840152612b0560e0840188612a8b565b828103610100840152612b188187612a2f565b60ff95909516610120840152505061014001529998505050505050505050565b60008060408385031215612b4b57600080fd5b612b548361297e565b9150602083013560028110612b6857600080fd5b809150509250929050565b600080600060608486031215612b8857600080fd5b612b918461297e565b9250612b9f6020850161297e565b929592945050506040919091013590565b600080600060608486031215612bc557600080fd5b612bce8461297e565b95602085013595506040909401359392505050565b60008060408385031215612bf657600080fd5b612bff8361297e565b946020939093013593505050565b60208152612c276020820183516001600160a01b03169052565b600060208301516101606040840152612c44610180840182612a2f565b90506040840151612c6060608501826001600160a01b03169052565b5060608401516080840152608084015160a084015260a084015160c084015260c084015160e084015260e0840151612c9c610100850182612a8b565b50610100840151838203601f1901610120850152612cba8282612a2f565b915050610120840151612cd361014085018260ff169052565b506101408401516101608401528091505092915050565b6001600160a01b0385168152608060208201819052600090612d0e90830186612a2f565b8281036040840152612d208186612a2f565b91505082606083015295945050505050565b634e487b7160e01b600052601160045260246000fd5b600060018201612d5a57612d5a612d32565b5060010190565b600181811c90821680612d7557607f821691505b602082108103612d9557634e487b7160e01b600052602260045260246000fd5b50919050565b601f821115612de557806000526020600020601f840160051c81016020851015612dc25750805b601f840160051c820191505b81811015612de25760008155600101612dce565b50505b505050565b815167ffffffffffffffff811115612e0457612e0461280c565b612e1881612e128454612d61565b84612d9b565b6020601f821160018114612e4c5760008315612e345750848201515b600019600385901b1c1916600184901b178455612de2565b600084815260208120601f198516915b82811015612e7c5787850151825560209485019460019092019101612e5c565b5084821015612e9a5786840151600019600387901b60f8161c191681555b50505050600190811b01905550565b6020808252600990820152682737ba1037bbb732b960b91b604082015260600190565b600060208284031215612ede57600080fd5b5051919050565b600082612f0257634e487b7160e01b600052601260045260246000fd5b500490565b600060208284031215612f1957600080fd5b8151610f5d816129cd565b6020808252602c908201527f546573742066756e6374696f6e73206f6e6c7920616c6c6f776564206f6e207460408201526b657374206e6574776f726b7360a01b606082015260800190565b6020808252600e908201526d1499595b9d1c985b9d0818d85b1b60921b604082015260600190565b81810381811115610d6557610d65612d32565b80820180821115610d6557610d65612d32565b8082028115828204841417610d6557610d65612d32565b634e487b7160e01b600052603260045260246000fd5b6001815b60018411156130265780850481111561300a5761300a612d32565b600184161561301857908102905b60019390931c928002612fef565b935093915050565b60008261303d57506001610d65565b8161304a57506000610d65565b8160018114613060576002811461306a57613086565b6001915050610d65565b60ff84111561307b5761307b612d32565b50506001821b610d65565b5060208310610133831016604e8410600b84101617156130a9575081810a610d65565b6130b66000198484612feb565b80600019048211156130ca576130ca612d32565b029392505050565b6000610f5d838361302e56fe60c060405234801561001057600080fd5b50604051610c51380380610c5183398101604081905261002f91610295565b8282600361003d83826103ae565b50600461004a82826103ae565b50503360808190526001600160a01b03861660a05261006a915082610073565b50505050610493565b6001600160a01b0382166100a25760405163ec442f0560e01b8152600060048201526024015b60405180910390fd5b6100ae600083836100b2565b5050565b6001600160a01b0383166100dd5780600260008282546100d2919061046c565b9091555061014f9050565b6001600160a01b038316600090815260208190526040902054818110156101305760405163391434e360e21b81526001600160a01b03851660048201526024810182905260448101839052606401610099565b6001600160a01b03841660009081526020819052604090209082900390555b6001600160a01b03821661016b5760028054829003905561018a565b6001600160a01b03821660009081526020819052604090208054820190555b816001600160a01b0316836001600160a01b03167fddf252ad1be2c89b69c2b068fc378daa952ba7f163c4a11628f55a4df523b3ef836040516101cf91815260200190565b60405180910390a3505050565b634e487b7160e01b600052604160045260246000fd5b600082601f83011261020357600080fd5b81516001600160401b0381111561021c5761021c6101dc565b604051601f8201601f19908116603f011681016001600160401b038111828210171561024a5761024a6101dc565b60405281815283820160200185101561026257600080fd5b60005b8281101561028157602081860181015183830182015201610265565b506000918101602001919091529392505050565b600080600080608085870312156102ab57600080fd5b84516001600160a01b03811681146102c257600080fd5b60208601519094506001600160401b038111156102de57600080fd5b6102ea878288016101f2565b604087015190945090506001600160401b0381111561030857600080fd5b610314878288016101f2565b606096909601519497939650505050565b600181811c9082168061033957607f821691505b60208210810361035957634e487b7160e01b600052602260045260246000fd5b50919050565b601f8211156103a957806000526020600020601f840160051c810160208510156103865750805b601f840160051c820191505b818110156103a65760008155600101610392565b50505b505050565b81516001600160401b038111156103c7576103c76101dc565b6103db816103d58454610325565b8461035f565b6020601f82116001811461040f57600083156103f75750848201515b600019600385901b1c1916600184901b1784556103a6565b600084815260208120601f198516915b8281101561043f578785015182556020948501946001909201910161041f565b508482101561045d5786840151600019600387901b60f8161c191681555b50505050600190811b01905550565b8082018082111561048d57634e487b7160e01b600052601160045260246000fd5b92915050565b60805160a05161079a6104b7600039600060b30152600061018c015261079a6000f3fe608060405234801561001057600080fd5b50600436106100a95760003560e01c8063313ce56711610071578063313ce5671461014f57806370a082311461015e5780638da5cb5b1461018757806395d89b41146101ae578063a9059cbb146101b6578063dd62ed3e146101c957600080fd5b806302d05d3f146100ae57806306fdde03146100f2578063095ea7b31461010757806318160ddd1461012a57806323b872dd1461013c575b600080fd5b6100d57f000000000000000000000000000000000000000000000000000000000000000081565b6040516001600160a01b0390911681526020015b60405180910390f35b6100fa610202565b6040516100e991906105e3565b61011a61011536600461064d565b610294565b60405190151581526020016100e9565b6002545b6040519081526020016100e9565b61011a61014a366004610677565b6102ae565b604051601281526020016100e9565b61012e61016c3660046106b4565b6001600160a01b031660009081526020819052604090205490565b6100d57f000000000000000000000000000000000000000000000000000000000000000081565b6100fa6102d2565b61011a6101c436600461064d565b6102e1565b61012e6101d73660046106d6565b6001600160a01b03918216600090815260016020908152604080832093909416825291909152205490565b60606003805461021190610709565b80601f016020809104026020016040519081016040528092919081815260200182805461023d90610709565b801561028a5780601f1061025f5761010080835404028352916020019161028a565b820191906000526020600020905b81548152906001019060200180831161026d57829003601f168201915b5050505050905090565b6000336102a28185856102ef565b60019150505b92915050565b6000336102bc858285610301565b6102c7858585610385565b506001949350505050565b60606004805461021190610709565b6000336102a2818585610385565b6102fc83838360016103e4565b505050565b6001600160a01b0383811660009081526001602090815260408083209386168352929052205460001981101561037f578181101561037057604051637dc7a0d960e11b81526001600160a01b038416600482015260248101829052604481018390526064015b60405180910390fd5b61037f848484840360006103e4565b50505050565b6001600160a01b0383166103af57604051634b637e8f60e11b815260006004820152602401610367565b6001600160a01b0382166103d95760405163ec442f0560e01b815260006004820152602401610367565b6102fc8383836104b9565b6001600160a01b03841661040e5760405163e602df0560e01b815260006004820152602401610367565b6001600160a01b03831661043857604051634a1406b160e11b815260006004820152602401610367565b6001600160a01b038085166000908152600160209081526040808320938716835292905220829055801561037f57826001600160a01b0316846001600160a01b03167f8c5be1e5ebec7d5bd14f71427d1e84f3dd0314c0f7b2291e5b200ac8c7c3b925846040516104ab91815260200190565b60405180910390a350505050565b6001600160a01b0383166104e45780600260008282546104d99190610743565b909155506105569050565b6001600160a01b038316600090815260208190526040902054818110156105375760405163391434e360e21b81526001600160a01b03851660048201526024810182905260448101839052606401610367565b6001600160a01b03841660009081526020819052604090209082900390555b6001600160a01b03821661057257600280548290039055610591565b6001600160a01b03821660009081526020819052604090208054820190555b816001600160a01b0316836001600160a01b03167fddf252ad1be2c89b69c2b068fc378daa952ba7f163c4a11628f55a4df523b3ef836040516105d691815260200190565b60405180910390a3505050565b602081526000825180602084015260005b8181101561061157602081860181015160408684010152016105f4565b506000604082850101526040601f19601f83011684010191505092915050565b80356001600160a01b038116811461064857600080fd5b919050565b6000806040838503121561066057600080fd5b61066983610631565b946020939093013593505050565b60008060006060848603121561068c57600080fd5b61069584610631565b92506106a360208501610631565b929592945050506040919091013590565b6000602082840312156106c657600080fd5b6106cf82610631565b9392505050565b600080604083850312156106e957600080fd5b6106f283610631565b915061070060208401610631565b90509250929050565b600181811c9082168061071d57607f821691505b60208210810361073d57634e487b7160e01b600052602260045260246000fd5b50919050565b808201808211156102a857634e487b7160e01b600052601160045260246000fdfea2646970667358221220c546c638810aadf9e3c0ae8aa4dd780007086c0c0ef66bb555d2f903839d56ea64736f6c634300081b0033a2646970667358221220c1ebfda1d563d9ea4218972164faba9c5058b4d7c7ad4c4947191448b22e73ac64736f6c634300081b0033",
  "linkReferences": {
    "contracts/libraries/CrowdfundingLib.sol": {
      "CrowdfundingLib": [
        {
          "length": 20,
          "start": 3486
        },
        {
          "length": 20,
          "start": 3627
        },
        {
          "length": 20,
          "start": 3990
        },
        {
          "length": 20,
          "start": 5197
        },
        {
          "length": 20,
          "start": 6065
        }
      ]
    }
  },
  "deployedLinkReferences": {
    "contracts/libraries/CrowdfundingLib.sol": {
      "CrowdfundingLib": [
        {
          "length": 20,
          "start": 3335
        },
        {
          "length": 20,
          "start": 3476
        },
        {
          "length": 20,
          "start": 3839
        },
        {
          "length": 20,
          "start": 5046
        },
        {
          "length": 20,
          "start": 5914
        }
      ]
    }
  }
}