{
  "_format": "hh-sol-artifact-1",
  "contractName": "CrowdfundingLibTester",
  "sourceName": "contracts/helper/CrowdfundingLibTester.sol",
  "abi": [
    {
      "inputs": [],
      "name": "getFundingLimit",
      "outputs": [
        {
          "internalType": "uint256",
          "name": "",
          "type": "uint256"
        }
      ],
      "stateMutability": "pure",
      "type": "function"
    },
    {
      "inputs": [],
      "name": "getFundingTarget",
      "outputs": [
        {
          "internalType": "uint256",
          "name": "",
          "type": "uint256"
        }
      ],
      "stateMutability": "pure",
      "type": "function"
    },
    {
      "inputs": [
        {
          "internalType": "uint256",
          "name": "_sold",
          "type": "uint256"
        },
        {
          "internalType": "uint256",
          "name": "_amount",
          "type": "uint256"
        }
      ],
      "name": "testCalculateTokenPrice",
      "outputs": [
        {
          "internalType": "uint256",
          "name": "",
          "type": "uint256"
        }
      ],
      "stateMutability": "pure",
      "type": "function"
    }
  ],
  "bytecode": "0x6080604052348015600f57600080fd5b506101b68061001f6000396000f3fe608060405234801561001057600080fd5b50600436106100415760003560e01c8063d48f708c14610046578063dbcbd0cb14610062578063e7e2b92714610075575b600080fd5b6729a2241af62c00005b60405190815260200160405180910390f35b610050610070366004610120565b61007d565b610050610104565b6040516325db0f4160e21b8152600481018390526024810182905260009073__$837d8a82f6bd9812dda03443f7368d1d26$__9063976c3d0490604401602060405180830381865af41580156100d7573d6000803e3d6000fd5b505050506040513d601f19601f820116820180604052508101906100fb9190610142565b90505b92915050565b600061011b670de0b6b3a76400006207a12061015b565b905090565b6000806040838503121561013357600080fd5b50508035926020909101359150565b60006020828403121561015457600080fd5b5051919050565b80820281158282048414176100fe57634e487b7160e01b600052601160045260246000fdfea26469706673582212209edef27df54cbdef7f19e3f349f75883d9c9ac2493feea071f11013d98230a7564736f6c634300081b0033",
  "linkReferences": {
    "contracts/libraries/CrowdfundingLib.sol": {
      "CrowdfundingLib": [
        {
          "length": 20,
          "start": 188
        }
      ]
    }
  },
  "deployedLinkReferences": {
    "contracts/libraries/CrowdfundingLib.sol": {
      "CrowdfundingLib": [
        {
          "length": 20,
          "start": 157
        }
      ]
    }
  }
}