{
  "_format": "hh-sol-artifact-1",
  "contractName": "Token",
  "sourceName": "contracts/Token.sol",
  "abi": [
    {
      "inputs": [
        {
          "internalType": "address",
          "name": "_creator",
          "type": "address"
        },
        {
          "internalType": "string",
          "name": "_name",
          "type": "string"
        },
        {
          "internalType": "string",
          "name": "_symbol",
          "type": "string"
        },
        {
          "internalType": "uint256",
          "name": "_totalSupply",
          "type": "uint256"
        }
      ],
      "stateMutability": "nonpayable",
      "type": "constructor"
    },
    {
      "inputs": [
        {
          "internalType": "address",
          "name": "spender",
          "type": "address"
        },
        {
          "internalType": "uint256",
          "name": "allowance",
          "type": "uint256"
        },
        {
          "internalType": "uint256",
          "name": "needed",
          "type": "uint256"
        }
      ],
      "name": "ERC20InsufficientAllowance",
      "type": "error"
    },
    {
      "inputs": [
        {
          "internalType": "address",
          "name": "sender",
          "type": "address"
        },
        {
          "internalType": "uint256",
          "name": "balance",
          "type": "uint256"
        },
        {
          "internalType": "uint256",
          "name": "needed",
          "type": "uint256"
        }
      ],
      "name": "ERC20InsufficientBalance",
      "type": "error"
    },
    {
      "inputs": [
        {
          "internalType": "address",
          "name": "approver",
          "type": "address"
        }
      ],
      "name": "ERC20InvalidApprover",
      "type": "error"
    },
    {
      "inputs": [
        {
          "internalType": "address",
          "name": "receiver",
          "type": "address"
        }
      ],
      "name": "ERC20InvalidReceiver",
      "type": "error"
    },
    {
      "inputs": [
        {
          "internalType": "address",
          "name": "sender",
          "type": "address"
        }
      ],
      "name": "ERC20InvalidSender",
      "type": "error"
    },
    {
      "inputs": [
        {
          "internalType": "address",
          "name": "spender",
          "type": "address"
        }
      ],
      "name": "ERC20InvalidSpender",
      "type": "error"
    },
    {
      "anonymous": false,
      "inputs": [
        {
          "indexed": true,
          "internalType": "address",
          "name": "owner",
          "type": "address"
        },
        {
          "indexed": true,
          "internalType": "address",
          "name": "spender",
          "type": "address"
        },
        {
          "indexed": false,
          "internalType": "uint256",
          "name": "value",
          "type": "uint256"
        }
      ],
      "name": "Approval",
      "type": "event"
    },
    {
      "anonymous": false,
      "inputs": [
        {
          "indexed": true,
          "internalType": "address",
          "name": "from",
          "type": "address"
        },
        {
          "indexed": true,
          "internalType": "address",
          "name": "to",
          "type": "address"
        },
        {
          "indexed": false,
          "internalType": "uint256",
          "name": "value",
          "type": "uint256"
        }
      ],
      "name": "Transfer",
      "type": "event"
    },
    {
      "inputs": [
        {
          "internalType": "address",
          "name": "owner",
          "type": "address"
        },
        {
          "internalType": "address",
          "name": "spender",
          "type": "address"
        }
      ],
      "name": "allowance",
      "outputs": [
        {
          "internalType": "uint256",
          "name": "",
          "type": "uint256"
        }
      ],
      "stateMutability": "view",
      "type": "function"
    },
    {
      "inputs": [
        {
          "internalType": "address",
          "name": "spender",
          "type": "address"
        },
        {
          "internalType": "uint256",
          "name": "value",
          "type": "uint256"
        }
      ],
      "name": "approve",
      "outputs": [
        {
          "internalType": "bool",
          "name": "",
          "type": "bool"
        }
      ],
      "stateMutability": "nonpayable",
      "type": "function"
    },
    {
      "inputs": [
        {
          "internalType": "address",
          "name": "account",
          "type": "address"
        }
      ],
      "name": "balanceOf",
      "outputs": [
        {
          "internalType": "uint256",
          "name": "",
          "type": "uint256"
        }
      ],
      "stateMutability": "view",
      "type": "function"
    },
    {
      "inputs": [],
      "name": "creator",
      "outputs": [
        {
          "internalType": "address",
          "name": "",
          "type": "address"
        }
      ],
      "stateMutability": "view",
      "type": "function"
    },
    {
      "inputs": [],
      "name": "decimals",
      "outputs": [
        {
          "internalType": "uint8",
          "name": "",
          "type": "uint8"
        }
      ],
      "stateMutability": "view",
      "type": "function"
    },
    {
      "inputs": [],
      "name": "name",
      "outputs": [
        {
          "internalType": "string",
          "name": "",
          "type": "string"
        }
      ],
      "stateMutability": "view",
      "type": "function"
    },
    {
      "inputs": [],
      "name": "owner",
      "outputs": [
        {
          "internalType": "address payable",
          "name": "",
          "type": "address"
        }
      ],
      "stateMutability": "view",
      "type": "function"
    },
    {
      "inputs": [],
      "name": "symbol",
      "outputs": [
        {
          "internalType": "string",
          "name": "",
          "type": "string"
        }
      ],
      "stateMutability": "view",
      "type": "function"
    },
    {
      "inputs": [],
      "name": "totalSupply",
      "outputs": [
        {
          "internalType": "uint256",
          "name": "",
          "type": "uint256"
        }
      ],
      "stateMutability": "view",
      "type": "function"
    },
    {
      "inputs": [
        {
          "internalType": "address",
          "name": "to",
          "type": "address"
        },
        {
          "internalType": "uint256",
          "name": "value",
          "type": "uint256"
        }
      ],
      "name": "transfer",
      "outputs": [
        {
          "internalType": "bool",
          "name": "",
          "type": "bool"
        }
      ],
      "stateMutability": "nonpayable",
      "type": "function"
    },
    {
      "inputs": [
        {
          "internalType": "address",
          "name": "from",
          "type": "address"
        },
        {
          "internalType": "address",
          "name": "to",
          "type": "address"
        },
        {
          "internalType": "uint256",
          "name": "value",
          "type": "uint256"
        }
      ],
      "name": "transferFrom",
      "outputs": [
        {
          "internalType": "bool",
          "name": "",
          "type": "bool"
        }
      ],
      "stateMutability": "nonpayable",
      "type": "function"
    }
  ],
  "bytecode": "0x60c060405234801561001057600080fd5b50604051610c51380380610c5183398101604081905261002f91610295565b8282600361003d83826103ae565b50600461004a82826103ae565b50503360808190526001600160a01b03861660a05261006a915082610073565b50505050610493565b6001600160a01b0382166100a25760405163ec442f0560e01b8152600060048201526024015b60405180910390fd5b6100ae600083836100b2565b5050565b6001600160a01b0383166100dd5780600260008282546100d2919061046c565b9091555061014f9050565b6001600160a01b038316600090815260208190526040902054818110156101305760405163391434e360e21b81526001600160a01b03851660048201526024810182905260448101839052606401610099565b6001600160a01b03841660009081526020819052604090209082900390555b6001600160a01b03821661016b5760028054829003905561018a565b6001600160a01b03821660009081526020819052604090208054820190555b816001600160a01b0316836001600160a01b03167fddf252ad1be2c89b69c2b068fc378daa952ba7f163c4a11628f55a4df523b3ef836040516101cf91815260200190565b60405180910390a3505050565b634e487b7160e01b600052604160045260246000fd5b600082601f83011261020357600080fd5b81516001600160401b0381111561021c5761021c6101dc565b604051601f8201601f19908116603f011681016001600160401b038111828210171561024a5761024a6101dc565b60405281815283820160200185101561026257600080fd5b60005b8281101561028157602081860181015183830182015201610265565b506000918101602001919091529392505050565b600080600080608085870312156102ab57600080fd5b84516001600160a01b03811681146102c257600080fd5b60208601519094506001600160401b038111156102de57600080fd5b6102ea878288016101f2565b604087015190945090506001600160401b0381111561030857600080fd5b610314878288016101f2565b606096909601519497939650505050565b600181811c9082168061033957607f821691505b60208210810361035957634e487b7160e01b600052602260045260246000fd5b50919050565b601f8211156103a957806000526020600020601f840160051c810160208510156103865750805b601f840160051c820191505b818110156103a65760008155600101610392565b50505b505050565b81516001600160401b038111156103c7576103c76101dc565b6103db816103d58454610325565b8461035f565b6020601f82116001811461040f57600083156103f75750848201515b600019600385901b1c1916600184901b1784556103a6565b600084815260208120601f198516915b8281101561043f578785015182556020948501946001909201910161041f565b508482101561045d5786840151600019600387901b60f8161c191681555b50505050600190811b01905550565b8082018082111561048d57634e487b7160e01b600052601160045260246000fd5b92915050565b60805160a05161079a6104b7600039600060b30152600061018c015261079a6000f3fe608060405234801561001057600080fd5b50600436106100a95760003560e01c8063313ce56711610071578063313ce5671461014f57806370a082311461015e5780638da5cb5b1461018757806395d89b41146101ae578063a9059cbb146101b6578063dd62ed3e146101c957600080fd5b806302d05d3f146100ae57806306fdde03146100f2578063095ea7b31461010757806318160ddd1461012a57806323b872dd1461013c575b600080fd5b6100d57f000000000000000000000000000000000000000000000000000000000000000081565b6040516001600160a01b0390911681526020015b60405180910390f35b6100fa610202565b6040516100e991906105e3565b61011a61011536600461064d565b610294565b60405190151581526020016100e9565b6002545b6040519081526020016100e9565b61011a61014a366004610677565b6102ae565b604051601281526020016100e9565b61012e61016c3660046106b4565b6001600160a01b031660009081526020819052604090205490565b6100d57f000000000000000000000000000000000000000000000000000000000000000081565b6100fa6102d2565b61011a6101c436600461064d565b6102e1565b61012e6101d73660046106d6565b6001600160a01b03918216600090815260016020908152604080832093909416825291909152205490565b60606003805461021190610709565b80601f016020809104026020016040519081016040528092919081815260200182805461023d90610709565b801561028a5780601f1061025f5761010080835404028352916020019161028a565b820191906000526020600020905b81548152906001019060200180831161026d57829003601f168201915b5050505050905090565b6000336102a28185856102ef565b60019150505b92915050565b6000336102bc858285610301565b6102c7858585610385565b506001949350505050565b60606004805461021190610709565b6000336102a2818585610385565b6102fc83838360016103e4565b505050565b6001600160a01b0383811660009081526001602090815260408083209386168352929052205460001981101561037f578181101561037057604051637dc7a0d960e11b81526001600160a01b038416600482015260248101829052604481018390526064015b60405180910390fd5b61037f848484840360006103e4565b50505050565b6001600160a01b0383166103af57604051634b637e8f60e11b815260006004820152602401610367565b6001600160a01b0382166103d95760405163ec442f0560e01b815260006004820152602401610367565b6102fc8383836104b9565b6001600160a01b03841661040e5760405163e602df0560e01b815260006004820152602401610367565b6001600160a01b03831661043857604051634a1406b160e11b815260006004820152602401610367565b6001600160a01b038085166000908152600160209081526040808320938716835292905220829055801561037f57826001600160a01b0316846001600160a01b03167f8c5be1e5ebec7d5bd14f71427d1e84f3dd0314c0f7b2291e5b200ac8c7c3b925846040516104ab91815260200190565b60405180910390a350505050565b6001600160a01b0383166104e45780600260008282546104d99190610743565b909155506105569050565b6001600160a01b038316600090815260208190526040902054818110156105375760405163391434e360e21b81526001600160a01b03851660048201526024810182905260448101839052606401610367565b6001600160a01b03841660009081526020819052604090209082900390555b6001600160a01b03821661057257600280548290039055610591565b6001600160a01b03821660009081526020819052604090208054820190555b816001600160a01b0316836001600160a01b03167fddf252ad1be2c89b69c2b068fc378daa952ba7f163c4a11628f55a4df523b3ef836040516105d691815260200190565b60405180910390a3505050565b602081526000825180602084015260005b8181101561061157602081860181015160408684010152016105f4565b506000604082850101526040601f19601f83011684010191505092915050565b80356001600160a01b038116811461064857600080fd5b919050565b6000806040838503121561066057600080fd5b61066983610631565b946020939093013593505050565b60008060006060848603121561068c57600080fd5b61069584610631565b92506106a360208501610631565b929592945050506040919091013590565b6000602082840312156106c657600080fd5b6106cf82610631565b9392505050565b600080604083850312156106e957600080fd5b6106f283610631565b915061070060208401610631565b90509250929050565b600181811c9082168061071d57607f821691505b60208210810361073d57634e487b7160e01b600052602260045260246000fd5b50919050565b808201808211156102a857634e487b7160e01b600052601160045260246000fdfea2646970667358221220c546c638810aadf9e3c0ae8aa4dd780007086c0c0ef66bb555d2f903839d56ea64736f6c634300081b0033",
  "linkReferences": {},
  "deployedLinkReferences": {}
}