{"contracts/libraries/CrowdfundingLib.sol":{"CrowdfundingLib":{"abi":[{"inputs":[],"name":"FEE_DENOMINATOR","outputs":[{"internalType":"uint256","name":"","type":"uint256"}],"stateMutability":"view","type":"function"},{"inputs":[],"name":"FUNDING_LIMIT","outputs":[{"internalType":"uint256","name":"","type":"uint256"}],"stateMutability":"view","type":"function"},{"inputs":[],"name":"FUNDING_TARGET","outputs":[{"internalType":"uint256","name":"","type":"uint256"}],"stateMutability":"view","type":"function"},{"inputs":[],"name":"SOFT_CAP","outputs":[{"internalType":"uint256","name":"","type":"uint256"}],"stateMutability":"view","type":"function"},{"inputs":[{"internalType":"uint256","name":"_amount","type":"uint256"},{"internalType":"uint256","name":"_feeRate","type":"uint256"}],"name":"calculatePlatformFee","outputs":[{"internalType":"uint256","name":"","type":"uint256"}],"stateMutability":"pure","type":"function"},{"inputs":[{"internalType":"uint256","name":"_sold","type":"uint256"},{"internalType":"uint256","name":"_amount","type":"uint256"}],"name":"calculateTokenPrice","outputs":[{"internalType":"uint256","name":"","type":"uint256"}],"stateMutability":"pure","type":"function"},{"inputs":[{"internalType":"uint256","name":"_raised","type":"uint256"}],"name":"isFundingSuccessful","outputs":[{"internalType":"bool","name":"","type":"bool"}],"stateMutability":"pure","type":"function"},{"inputs":[{"internalType":"uint256","name":"_amount","type":"uint256"},{"internalType":"uint256","name":"totalPurchased","type":"uint256"}],"name":"validateSaleParams","outputs":[{"internalType":"bool","name":"","type":"bool"}],"stateMutability":"pure","type":"function"}],"evm":{"bytecode":{"linkReferences":{},"object":"610304610039600b82828239805160001a607314602c57634e487b7160e01b600052600060045260246000fd5b30600052607381538281f3fe73000000000000000000000000000000000000000030146080604052600436106100925760003560e01c8063b652dc2f11610065578063b652dc2f14610100578063c8df5a621461010f578063d73792a914610122578063ef11c8091461012b57600080fd5b806301d1ade114610097578063102514cc146100b9578063976c3d04146100e5578063aea6c021146100f8575b600080fd5b6100a66729a2241af62c000081565b6040519081526020015b60405180910390f35b6100d56100c7366004610231565b670de0b6b3a7640000111590565b60405190151581526020016100b0565b6100a66100f336600461024a565b61013e565b6100a661019e565b6100a6670de0b6b3a764000081565b6100d561011d36600461024a565b6101b6565b6100a661271081565b6100a661013936600461024a565b610211565b6000655af3107a40008069021e19e0c9bab2400000838261015f8389610282565b61016990856102a4565b61017391906102bb565b9050610187670de0b6b3a764000087610282565b61019190826102a4565b9450505050505b92915050565b6101b3670de0b6b3a76400006207a1206102a4565b81565b6000670de0b6b3a76400008310806101d7575069021e19e0c9bab240000083115b156101e457506000610198565b6101f9670de0b6b3a76400006207a1206102a4565b82111561020857506000610198565b50600192915050565b600061271061022083856102a4565b61022a9190610282565b9392505050565b60006020828403121561024357600080fd5b5035919050565b6000806040838503121561025d57600080fd5b50508035926020909101359150565b634e487b7160e01b600052601160045260246000fd5b60008261029f57634e487b7160e01b600052601260045260246000fd5b500490565b80820281158282048414176101985761019861026c565b808201808211156101985761019861026c56fea2646970667358221220325796623e656284b2eea2544a1a51dc165646e227b5a1c734979af75ebefad964736f6c634300081b0033","opcodes":"PUSH2 0x304 PUSH2 0x39 PUSH1 0xB DUP3 DUP3 DUP3 CODECOPY DUP1 MLOAD PUSH1 0x0 BYTE PUSH1 0x73 EQ PUSH1 0x2C JUMPI PUSH4 0x4E487B71 PUSH1 0xE0 SHL PUSH1 0x0 MSTORE PUSH1 0x0 PUSH1 0x4 MSTORE PUSH1 0x24 PUSH1 0x0 REVERT JUMPDEST ADDRESS PUSH1 0x0 MSTORE PUSH1 0x73 DUP2 MSTORE8 DUP3 DUP2 RETURN INVALID PUSH20 0x0 ADDRESS EQ PUSH1 0x80 PUSH1 0x40 MSTORE PUSH1 0x4 CALLDATASIZE LT PUSH2 0x92 JUMPI PUSH1 0x0 CALLDATALOAD PUSH1 0xE0 SHR DUP1 PUSH4 0xB652DC2F GT PUSH2 0x65 JUMPI DUP1 PUSH4 0xB652DC2F EQ PUSH2 0x100 JUMPI DUP1 PUSH4 0xC8DF5A62 EQ PUSH2 0x10F JUMPI DUP1 PUSH4 0xD73792A9 EQ PUSH2 0x122 JUMPI DUP1 PUSH4 0xEF11C809 EQ PUSH2 0x12B JUMPI PUSH1 0x0 DUP1 REVERT JUMPDEST DUP1 PUSH4 0x1D1ADE1 EQ PUSH2 0x97 JUMPI DUP1 PUSH4 0x102514CC EQ PUSH2 0xB9 JUMPI DUP1 PUSH4 0x976C3D04 EQ PUSH2 0xE5 JUMPI DUP1 PUSH4 0xAEA6C021 EQ PUSH2 0xF8 JUMPI JUMPDEST PUSH1 0x0 DUP1 REVERT JUMPDEST PUSH2 0xA6 PUSH8 0x29A2241AF62C0000 DUP2 JUMP JUMPDEST PUSH1 0x40 MLOAD SWAP1 DUP2 MSTORE PUSH1 0x20 ADD JUMPDEST PUSH1 0x40 MLOAD DUP1 SWAP2 SUB SWAP1 RETURN JUMPDEST PUSH2 0xD5 PUSH2 0xC7 CALLDATASIZE PUSH1 0x4 PUSH2 0x231 JUMP JUMPDEST PUSH8 0xDE0B6B3A7640000 GT ISZERO SWAP1 JUMP JUMPDEST PUSH1 0x40 MLOAD SWAP1 ISZERO ISZERO DUP2 MSTORE PUSH1 0x20 ADD PUSH2 0xB0 JUMP JUMPDEST PUSH2 0xA6 PUSH2 0xF3 CALLDATASIZE PUSH1 0x4 PUSH2 0x24A JUMP JUMPDEST PUSH2 0x13E JUMP JUMPDEST PUSH2 0xA6 PUSH2 0x19E JUMP JUMPDEST PUSH2 0xA6 PUSH8 0xDE0B6B3A7640000 DUP2 JUMP JUMPDEST PUSH2 0xD5 PUSH2 0x11D CALLDATASIZE PUSH1 0x4 PUSH2 0x24A JUMP JUMPDEST PUSH2 0x1B6 JUMP JUMPDEST PUSH2 0xA6 PUSH2 0x2710 DUP2 JUMP JUMPDEST PUSH2 0xA6 PUSH2 0x139 CALLDATASIZE PUSH1 0x4 PUSH2 0x24A JUMP JUMPDEST PUSH2 0x211 JUMP JUMPDEST PUSH1 0x0 PUSH6 0x5AF3107A4000 DUP1 PUSH10 0x21E19E0C9BAB2400000 DUP4 DUP3 PUSH2 0x15F DUP4 DUP10 PUSH2 0x282 JUMP JUMPDEST PUSH2 0x169 SWAP1 DUP6 PUSH2 0x2A4 JUMP JUMPDEST PUSH2 0x173 SWAP2 SWAP1 PUSH2 0x2BB JUMP JUMPDEST SWAP1 POP PUSH2 0x187 PUSH8 0xDE0B6B3A7640000 DUP8 PUSH2 0x282 JUMP JUMPDEST PUSH2 0x191 SWAP1 DUP3 PUSH2 0x2A4 JUMP JUMPDEST SWAP5 POP POP POP POP POP JUMPDEST SWAP3 SWAP2 POP POP JUMP JUMPDEST PUSH2 0x1B3 PUSH8 0xDE0B6B3A7640000 PUSH3 0x7A120 PUSH2 0x2A4 JUMP JUMPDEST DUP2 JUMP JUMPDEST PUSH1 0x0 PUSH8 0xDE0B6B3A7640000 DUP4 LT DUP1 PUSH2 0x1D7 JUMPI POP PUSH10 0x21E19E0C9BAB2400000 DUP4 GT JUMPDEST ISZERO PUSH2 0x1E4 JUMPI POP PUSH1 0x0 PUSH2 0x198 JUMP JUMPDEST PUSH2 0x1F9 PUSH8 0xDE0B6B3A7640000 PUSH3 0x7A120 PUSH2 0x2A4 JUMP JUMPDEST DUP3 GT ISZERO PUSH2 0x208 JUMPI POP PUSH1 0x0 PUSH2 0x198 JUMP JUMPDEST POP PUSH1 0x1 SWAP3 SWAP2 POP POP JUMP JUMPDEST PUSH1 0x0 PUSH2 0x2710 PUSH2 0x220 DUP4 DUP6 PUSH2 0x2A4 JUMP JUMPDEST PUSH2 0x22A SWAP2 SWAP1 PUSH2 0x282 JUMP JUMPDEST SWAP4 SWAP3 POP POP POP JUMP JUMPDEST PUSH1 0x0 PUSH1 0x20 DUP3 DUP5 SUB SLT ISZERO PUSH2 0x243 JUMPI PUSH1 0x0 DUP1 REVERT JUMPDEST POP CALLDATALOAD SWAP2 SWAP1 POP JUMP JUMPDEST PUSH1 0x0 DUP1 PUSH1 0x40 DUP4 DUP6 SUB SLT ISZERO PUSH2 0x25D JUMPI PUSH1 0x0 DUP1 REVERT JUMPDEST POP POP DUP1 CALLDATALOAD SWAP3 PUSH1 0x20 SWAP1 SWAP2 ADD CALLDATALOAD SWAP2 POP JUMP JUMPDEST PUSH4 0x4E487B71 PUSH1 0xE0 SHL PUSH1 0x0 MSTORE PUSH1 0x11 PUSH1 0x4 MSTORE PUSH1 0x24 PUSH1 0x0 REVERT JUMPDEST PUSH1 0x0 DUP3 PUSH2 0x29F JUMPI PUSH4 0x4E487B71 PUSH1 0xE0 SHL PUSH1 0x0 MSTORE PUSH1 0x12 PUSH1 0x4 MSTORE PUSH1 0x24 PUSH1 0x0 REVERT JUMPDEST POP DIV SWAP1 JUMP JUMPDEST DUP1 DUP3 MUL DUP2 ISZERO DUP3 DUP3 DIV DUP5 EQ OR PUSH2 0x198 JUMPI PUSH2 0x198 PUSH2 0x26C JUMP JUMPDEST DUP1 DUP3 ADD DUP1 DUP3 GT ISZERO PUSH2 0x198 JUMPI PUSH2 0x198 PUSH2 0x26C JUMP INVALID LOG2 PUSH5 0x6970667358 0x22 SLT KECCAK256 ORIGIN JUMPI SWAP7 PUSH3 0x3E6562 DUP5 0xB2 0xEE LOG2 SLOAD BLOBBASEFEE BYTE MLOAD 0xDC AND JUMP CHAINID 0xE2 0x27 0xB5 LOG1 0xC7 CALLVALUE SWAP8 SWAP11 0xF7 MCOPY 0xBE STATICCALL 0xD9 PUSH5 0x736F6C6343 STOP ADDMOD SHL STOP CALLER "},"methodIdentifiers":{"FEE_DENOMINATOR()":"d73792a9","FUNDING_LIMIT()":"aea6c021","FUNDING_TARGET()":"01d1ade1","SOFT_CAP()":"b652dc2f","calculatePlatformFee(uint256,uint256)":"ef11c809","calculateTokenPrice(uint256,uint256)":"976c3d04","isFundingSuccessful(uint256)":"102514cc","validateSaleParams(uint256,uint256)":"c8df5a62"}}}}}