{"contracts/helper/CrowdfundingLibTester.sol":{"CrowdfundingLibTester":{"abi":[{"inputs":[],"name":"getFundingLimit","outputs":[{"internalType":"uint256","name":"","type":"uint256"}],"stateMutability":"pure","type":"function"},{"inputs":[],"name":"getFundingTarget","outputs":[{"internalType":"uint256","name":"","type":"uint256"}],"stateMutability":"pure","type":"function"},{"inputs":[{"internalType":"uint256","name":"_sold","type":"uint256"},{"internalType":"uint256","name":"_amount","type":"uint256"}],"name":"testCalculateTokenPrice","outputs":[{"internalType":"uint256","name":"","type":"uint256"}],"stateMutability":"pure","type":"function"}],"evm":{"bytecode":{"linkReferences":{"contracts/libraries/CrowdfundingLib.sol":{"CrowdfundingLib":[{"length":20,"start":188}]}},"object":"6080604052348015600f57600080fd5b506101b68061001f6000396000f3fe608060405234801561001057600080fd5b50600436106100415760003560e01c8063d48f708c14610046578063dbcbd0cb14610062578063e7e2b92714610075575b600080fd5b6729a2241af62c00005b60405190815260200160405180910390f35b610050610070366004610120565b61007d565b610050610104565b6040516325db0f4160e21b8152600481018390526024810182905260009073__$837d8a82f6bd9812dda03443f7368d1d26$__9063976c3d0490604401602060405180830381865af41580156100d7573d6000803e3d6000fd5b505050506040513d601f19601f820116820180604052508101906100fb9190610142565b90505b92915050565b600061011b670de0b6b3a76400006207a12061015b565b905090565b6000806040838503121561013357600080fd5b50508035926020909101359150565b60006020828403121561015457600080fd5b5051919050565b80820281158282048414176100fe57634e487b7160e01b600052601160045260246000fdfea26469706673582212209edef27df54cbdef7f19e3f349f75883d9c9ac2493feea071f11013d98230a7564736f6c634300081b0033","opcodes":"PUSH1 0x80 PUSH1 0x40 MSTORE CALLVALUE DUP1 ISZERO PUSH1 0xF JUMPI PUSH1 0x0 DUP1 REVERT JUMPDEST POP PUSH2 0x1B6 DUP1 PUSH2 0x1F PUSH1 0x0 CODECOPY PUSH1 0x0 RETURN INVALID PUSH1 0x80 PUSH1 0x40 MSTORE CALLVALUE DUP1 ISZERO PUSH2 0x10 JUMPI PUSH1 0x0 DUP1 REVERT JUMPDEST POP PUSH1 0x4 CALLDATASIZE LT PUSH2 0x41 JUMPI PUSH1 0x0 CALLDATALOAD PUSH1 0xE0 SHR DUP1 PUSH4 0xD48F708C EQ PUSH2 0x46 JUMPI DUP1 PUSH4 0xDBCBD0CB EQ PUSH2 0x62 JUMPI DUP1 PUSH4 0xE7E2B927 EQ PUSH2 0x75 JUMPI JUMPDEST PUSH1 0x0 DUP1 REVERT JUMPDEST PUSH8 0x29A2241AF62C0000 JUMPDEST PUSH1 0x40 MLOAD SWAP1 DUP2 MSTORE PUSH1 0x20 ADD PUSH1 0x40 MLOAD DUP1 SWAP2 SUB SWAP1 RETURN JUMPDEST PUSH2 0x50 PUSH2 0x70 CALLDATASIZE PUSH1 0x4 PUSH2 0x120 JUMP JUMPDEST PUSH2 0x7D JUMP JUMPDEST PUSH2 0x50 PUSH2 0x104 JUMP JUMPDEST PUSH1 0x40 MLOAD PUSH4 0x25DB0F41 PUSH1 0xE2 SHL DUP2 MSTORE PUSH1 0x4 DUP2 ADD DUP4 SWAP1 MSTORE PUSH1 0x24 DUP2 ADD DUP3 SWAP1 MSTORE PUSH1 0x0 SWAP1 PUSH20 0x0 SWAP1 PUSH4 0x976C3D04 SWAP1 PUSH1 0x44 ADD PUSH1 0x20 PUSH1 0x40 MLOAD DUP1 DUP4 SUB DUP2 DUP7 GAS DELEGATECALL ISZERO DUP1 ISZERO PUSH2 0xD7 JUMPI RETURNDATASIZE PUSH1 0x0 DUP1 RETURNDATACOPY RETURNDATASIZE PUSH1 0x0 REVERT JUMPDEST POP POP POP POP PUSH1 0x40 MLOAD RETURNDATASIZE PUSH1 0x1F NOT PUSH1 0x1F DUP3 ADD AND DUP3 ADD DUP1 PUSH1 0x40 MSTORE POP DUP2 ADD SWAP1 PUSH2 0xFB SWAP2 SWAP1 PUSH2 0x142 JUMP JUMPDEST SWAP1 POP JUMPDEST SWAP3 SWAP2 POP POP JUMP JUMPDEST PUSH1 0x0 PUSH2 0x11B PUSH8 0xDE0B6B3A7640000 PUSH3 0x7A120 PUSH2 0x15B JUMP JUMPDEST SWAP1 POP SWAP1 JUMP JUMPDEST PUSH1 0x0 DUP1 PUSH1 0x40 DUP4 DUP6 SUB SLT ISZERO PUSH2 0x133 JUMPI PUSH1 0x0 DUP1 REVERT JUMPDEST POP POP DUP1 CALLDATALOAD SWAP3 PUSH1 0x20 SWAP1 SWAP2 ADD CALLDATALOAD SWAP2 POP JUMP JUMPDEST PUSH1 0x0 PUSH1 0x20 DUP3 DUP5 SUB SLT ISZERO PUSH2 0x154 JUMPI PUSH1 0x0 DUP1 REVERT JUMPDEST POP MLOAD SWAP2 SWAP1 POP JUMP JUMPDEST DUP1 DUP3 MUL DUP2 ISZERO DUP3 DUP3 DIV DUP5 EQ OR PUSH2 0xFE JUMPI PUSH4 0x4E487B71 PUSH1 0xE0 SHL PUSH1 0x0 MSTORE PUSH1 0x11 PUSH1 0x4 MSTORE PUSH1 0x24 PUSH1 0x0 REVERT INVALID LOG2 PUSH5 0x6970667358 0x22 SLT KECCAK256 SWAP15 0xDE CALLCODE PUSH30 0xF54CBDEF7F19E3F349F75883D9C9AC2493FEEA071F11013D98230A756473 PUSH16 0x6C634300081B00330000000000000000 "},"methodIdentifiers":{"getFundingLimit()":"e7e2b927","getFundingTarget()":"d48f708c","testCalculateTokenPrice(uint256,uint256)":"dbcbd0cb"}}}}}